:100000000C94E2000C940A010C940A010C940A016D
:100010000C940A010C940A010C940A010C940A0134
:100020000C940A010C940A010C943A040C94A9044F
:100030000C940A010C940A010C940A010C940A0114
:100040000C940A010C9425070C940A010C940A01E3
:100050000C940A010C940A010C940A010C94DB061E
:100060000C940A010C940A010C940A010C940A01E4
:100070000C940A010C940A010C940A010C940A01D4
:100080000C940A010C940A010C940A010C940A01C4
:100090000C940A010C940A010C940A010C940A01B4
:1000A0000C940A010C940A010C940A014552524F17
:1000B0005221004F4B00424C55453A2000455252C8
:1000C0004F5221004F4B00475245454E3A200045C4
:1000D00052524F5221004F4B005245443A20005398
:1000E00074617274696E672E2E2E004E6578742EC0
:1000F0002E2E00080B00020202000009040000017D
:10010000020200000524001001052401010104245D
:1001100002060524060001070581031000400904BA
:100120000100020A00000007050202400000070566
:1001300083024000000403090412010002EF0201DF
:100140004041233780000101020301417264756957
:100150006E6F204C4C430041726475696E6F204D88
:100160006963726F0000000000240027002A002D40
:1001700000300000000000250028002B002E003178
:10018000000404040404030405020202020403023E
:10019000020202060606060606040402020204041F
:1001A0000408020110408040102040804080080276
:1001B00004018040201002011080102040402000E7
:1001C000B507F70811241FBECFEFDAE0DEBFCDBFC1
:1001D00011E0A0E0B1E0ECE2F2E102C005900D9286
:1001E000A832B107D9F721E0A8E2B1E001C01D9221
:1001F000AF3BB207E1F710E0C1EED0E004C02197B9
:10020000FE010E940309C03ED107C9F70E94D5072D
:100210000C9409090C940000CF93DF93EC0170E07B
:10022000FB01E056FE4F84918A876F577E4FFB019A
:100230009491E92FF0E0EE0FFF1FED58FE4F25914E
:10024000349139872887A0914901B0914A011097CC
:10025000C9F018964D915C9119972417350771F4E0
:100260001A969C911A97891309C0CA17DB0731F0B7
:100270001986188680E0DF91CF9108950D90BC918A
:10028000A02DE5CF91E09B87FB016491E62FF0E084
:10029000EE0FFF1FEB59FE4FA591B491EC91E82BA7
:1002A000EC93F8941092810080918100816080939A
:1002B0008100809181008D7F8093810080918100F9
:1002C0008B7F80938100809180008E7F809380005F
:1002D000809180008D7F8093800080918100886074
:1002E00080938100809181008F7E80938100809136
:1002F0006F00826080936F00789486E891E090931D
:10030000890080938800B7CFFC0180914801882341
:1003100011F13FB7F89482E08093E9002091F20058
:10032000822F90E01816190614F481E090E08823DB
:1003300039F0289A44E6409347014091F100408308
:10034000222339F02091F200211103C02BE62093E3
:10035000E8003FBF08958FEF9FEF08952FB7F894FF
:1003600083E08093E9009091E800892F807295FFE7
:1003700004C09091F20080E4891B2FBF0895809102
:100380003F0181110DC082E080933B0184E08093A6
:100390003C0110923E0110923D0181E080933F01AB
:1003A0008BE391E008954091350150913601209101
:1003B00033013091340142175307B4F49091E800AF
:1003C0009570E1F39091E80092FD19C08093F100DF
:1003D000809135019091360101968F739927892B71
:1003E00019F48EEF8093E8008091350190913601E9
:1003F0000196909336018093350181E0089580E065
:100400000895EF92FF920F931F93CF93DF93F82EEF
:10041000192FE62E042F81E0860F880F0E94D3014A
:1004200083E00E94D301CF2DD12FEC0EFD2EF11CC5
:10043000CE15DF05B9F007FF13C0FE0184910E94BD
:10044000D301182F80E00E94D301812321968111CE
:10045000EFCFDF91CF911F910F91FF90EF90089513
:100460008881EDCF81E0F5CFDF92EF92FF920F937D
:100470001F93CF93DF93D82E8A01EB017B01E40E0B
:10048000F51ECE15DF0559F0D7FE12C0FE0184918E
:100490000E94D30121968111F4CF0FEF1FEFC80105
:1004A000DF91CF911F910F91FF90EF90DF90089512
:1004B0008881EECF0F931F93CF93DF931F92CDB719
:1004C000DEB782E0898342E450E063EF70E080E8C9
:1004D0000E9434020E94BF01DC0112960D911C9112
:1004E0000115110589F0D801ED91FC910280F3818D
:1004F000E02DBE016F5F7F4FC801099597FD04C0D5
:10050000F80100851185ECCF89810F90DF91CF91A3
:100510001F910F910895615030F02091F100FC017E
:1005200020830196F8CF289A84E6809347010895A6
:10053000CF93DF931F92CDB7DEB76983DC01ED91D6
:10054000FC910280F381E02D41E050E0BE016F5F3D
:100550007F4F09950F90DF91CF9108950F931F93CF
:10056000CF93DF938C01D0E0C0E0F801EC0FFD1FCA
:100570006491662341F08BE491E00E949802892BFC
:1005800011F02196F2CFCE01DF91CF911F910F9103
:10059000089583E08093E9008091F200882319F0A8
:1005A0008AE38093E80008950E94AE0190E00895E8
:1005B000CF93DF931F92CDB7DEB7FC01848595857D
:1005C00097FD08C02FEF3FEF358724870F90DF910D
:1005D000CF910895CE0101960E948401019719F4EC
:1005E000898190E0F3CF8FEF9FEFF0CF0F931F93B0
:1005F000CF93DF931F92CDB7DEB78C01FC018485CA
:10060000958597FF0BC0CE0101960E94840101974A
:1006100071F4898190E0F80195878487F8018485D9
:1006200095850F90DF91CF911F910F9108958FEFD6
:100630009FEFF1CFFC018485958597FD0BC09FB797
:10064000F89482E08093E9008091F2009FBF90E0EF
:10065000019608959FB7F89482E08093E900809115
:10066000F2009FBF90E008953FB7F89480912F016A
:1006700090913001A0913101B091320126B5A89B33
:1006800005C02F3F19F00196A11DB11D3FBFBA2F24
:10069000A92F982F8827BC01CD01620F711D811DE4
:1006A000911D42E0660F771F881F991F4A95D1F769
:1006B00008958F929F92AF92BF92CF92DF92EF9266
:1006C000FF924B015C010E9434036B017C010E948C
:1006D00034036C197D098E099F09683E73408105BA
:1006E0009105A8F321E0821A9108A108B10888EECB
:1006F000C80E83E0D81EE11CF11C81149104A104F2
:10070000B10429F7FF90EF90DF90CF90BF90AF90AA
:100710009F908F9008958F929F92AF92BF92CF92A9
:10072000DF92EF92FF920F931F93CF93DF936C01B1
:100730007B018A0180910B01882309F45CC08091C0
:100740004801882309F457C08091390180FF05C012
:100750008091E00082608093E000E801B12C8AEF94
:10076000A82E93E0892E2AE3922E209711F4BB2025
:10077000D9F10E94AE0181110AC0AA94AA20D9F130
:1007800061E070E080E090E00E945903EECF8C17AA
:100790001D0611F00CF08C2F9FB7F8948092E900A1
:1007A0002091E80025FD02C09FBFDFCF282F30E059
:1007B000C21BD30BF701815020F041914093F1000F
:1007C000FACFE20EF31EBB2021F09092E800B12C8C
:1007D000EBCF8091E80085FDE7CF9092E800BB2445
:1007E000B394209709F3F3CF5D9A84E680933A019E
:1007F000101611063CF081E090E0F60193838283AD
:1008000010E000E0C801DF91CF911F910F91FF90A0
:10081000EF90DF90CF90BF90AF909F908F90089512
:10082000CF93DF930E94AE02EC0142E050E065E21C
:1008300071E08BE491E00E948B038C0F9D1FDF9190
:10084000CF910895E0914901F0914A01E817F90725
:1008500049F4F89480916F008D7F80936F007894B5
:100860000895F9012081318128173907D1F71182C4
:10087000108208951F920F920FB60F9211248F933A
:100880009F938091E1009091E100937F9093E1002C
:1008900083FF0FC01092E90091E09093EB0010925B
:1008A000EC0092E39093ED001092480198E0909351
:1008B000F00082FF22C093E09093E9009091F20053
:1008C000992319F09AE39093E80090913A019923C3
:1008D00041F090913A01915090933A01911101C0E9
:1008E0005D9890914701992341F090914701915073
:1008F00090934701911101C0289884FF18C08091FE
:10090000E2008E7E81608093E2008091E1008F7E24
:100910008093E100809139018E7E8061809339015E
:100920009F918F910F900FBE0F901F90189580FF91
:10093000F7CF8091E2008E7E80618093E20080910B
:10094000E1008E7E8093E100809139018E7E81608E
:10095000E5CF1F920F920FB60F921124CF92DF9224
:10096000EF92FF920F931F932F933F934F935F93B9
:100970006F937F938F939F93AF93BF93EF93FF9367
:10098000CF93DF93CDB7DEB76C97DEBFCDBF1092AC
:10099000E9008091E80083FF25C068E0CE0145961C
:1009A0000E948B0282EF8093E8008D8987FF39C017
:1009B0009091E80090FFFCCF982F907609F034C119
:1009C0009E894F89588D2F89F88C911131C08038BC
:1009D00061F5809138018093F1001092F1008EEF63
:1009E0008093E8006C960FB6F894DEBF0FBECDBFC3
:1009F000DF91CF91FF91EF91BF91AF919F918F9137
:100A00007F916F915F914F913F912F911F910F9126
:100A1000FF90EF90DF90CF900F900FBE0F901F9040
:100A200018959EEF9093E800C7CF1092F100D5CFB4
:100A3000913059F48111D3CF4130510581F6809125
:100A400038018D7F80933801CACF933049F48111EA
:100A5000C6CF4130510519F6809138018260F2CF3E
:100A6000953041F48091E80080FFFCCF206820930E
:100A7000E300B5CF963009F0A9C00B8D1C8D22E0A4
:100A80001092E9001092360110923501F2122EC038
:100A900010923401109233010E945A021F8299E091
:100AA0009983FA8291E09E8390EA98879AEF9987DA
:100AB0002091350130913601275F3F4F3C832B83D6
:100AC0008D831092E9001092360110923501109337
:100AD00034010093330149E050E0BE016F5F7F4F66
:100AE00080E00E9434020E945A0279CF10933401B0
:100AF000009333010E94BF01DC0112960D911C91FD
:100B00000115110509F451C1D801ED91FC91048042
:100B1000F581E02DBE016B5E7F4FC80109950097FE
:100B200009F03EC1F80100851185EACFF3E0FF121C
:100B30000EC08F89882309F440C0823061F440E8F8
:100B40006DE087E591E00E940102811148CF81E2CA
:100B50008093EB0047CF813029F440E86BE08BE4D1
:100B600091E0F1CF833099F70E94BF01DC0112962A
:100B7000ED90FC908E010F5F1F4F6801E114F104AE
:100B800079F0D701ED91FC910680F781E02DB80155
:100B9000C7010995080F111DF701E084F184EECF1C
:100BA000D8011C92F60101900020E9F73197BF01AE
:100BB0006C197D0940E0C601C6CF65E371E0FB0119
:100BC000449150E080E80E94340209CF973009F444
:100BD000BECF983021F481E08093F10000CF9930AE
:100BE00009F0FDCE837009F0B2CFEDE0F1E081E0D5
:100BF00031E096E32191222371F08093E900309354
:100C0000EB00DF0111972C912093EC009093ED0005
:100C10008F5F873079F78EE78093EA001092EA00C1
:100C20008F8980934801DBCE8B8D9C8D1092E900DB
:100C30001092360110923501909334018093330164
:100C4000898D811192C08E899D89913A49F48132B2
:100C500009F07DCF47E050E064E071E080E0B3CF81
:100C6000913209F074CF833269F48F89988DB0E0A6
:100C7000A0E08093000190930101A0930201B09342
:100C80000301ADCE803269F48091E80082FFFCCF91
:100C900067E084E091E00E948B028BEF8093E80094
:100CA0009ECE823209F09BCE8F8980930B01EEEFAE
:100CB000FFE7859194918B3F9C4D51F1E0E0F8E086
:100CC0008091040190910501A0910601B091070166
:100CD000803B9440A105B105F1F480910B0180FDAA
:100CE0001AC0EE3F8AE0F80789F587E797E7918316
:100CF0008083809160008093370188E19BE00FB68C
:100D0000F894A895809360000FBE9093600067CE22
:100D1000EEEFFAE0D5CF808191818737974709F0D0
:100D20005ECEA8958091600088618093600080917C
:100D3000370180936000EE3F2AE0F20789F080914E
:100D4000FE0A9091FF0A9183808349CE8081918130
:100D50008737980751F29093FF0A8093FE0AC5CF18
:100D60001092FF0A1092FE0A3ACE0E94BF01DC01E7
:100D700012960D911C910115110509F4E8CED801C8
:100D8000ED91FC910190F081E02DBE016B5E7F4FF3
:100D9000C8010995811123CEF80100851185EBCF9B
:100DA000181619060CF41BCED2CEF1E0FF12BECEFF
:100DB00069E371E004CF1F920F920FB60F921124D6
:100DC0002F933F938F939F93AF93BF9380912B016A
:100DD00090912C01A0912D01B0912E0130912A010A
:100DE00023E0230F2D3758F50196A11DB11D209347
:100DF0002A0180932B0190932C01A0932D01B09395
:100E00002E0180912F0190913001A0913101B0917C
:100E100032010196A11DB11D80932F0190933001E5
:100E2000A0933101B0933201BF91AF919F918F9107
:100E30003F912F910F900FBE0F901F90189526E8AD
:100E4000230F0296A11DB11DD2CF1F920F920FB694
:100E50000F9211242F933F934F936F937F938F9310
:100E60009F93AF93BF93EF93FF93E0914901F0916C
:100E70004A0120912801309129013097E1F1A085A4
:100E8000B1851097F1F082819381009741F48285BA
:100E90009385992361F09C91892B8C9312C08F3F8D
:100EA00043E0940741F4828593859923A1F39C91B3
:100EB00080958923F2CF21153105A9F32817390729
:100EC00031F382819381648175818617970769F078
:100ED00047814F5F4783411108C0468147836817A8
:100EE000790738F40197938382830190F081E02D94
:100EF000C4CF0196F8CF2F5F3F4F33703093290155
:100F000020932801FF91EF91BF91AF919F918F9115
:100F10007F916F914F913F912F910F900FBE0F9046
:100F20001F901895FC011182108213821282158283
:100F30001482168217821186108612861386A0915B
:100F40004901B0914A01109731F490934A0180937E
:100F500049010895DC018D919C9111970097D1F77B
:100F6000ED93FC93118210820895EBE4F1E013827B
:100F7000128288EE93E0A0E0B0E084839583A6839C
:100F8000B78387E191E0918380838FEF9FEF95870F
:100F9000848783EB91E00E94920787EA91E00E94A8
:100FA00092078BE991E00C949207789484B5826063
:100FB00084BD84B5816084BD85B5826085BD85B5FD
:100FC000816085BD80916E00816080936E0010927B
:100FD00081008091810082608093810080918100F6
:100FE0008160809381008091800081608093800087
:100FF0008091910082608093910080919100816046
:101000008093910080919000816080939000809106
:10101000C10084608093C1008091C1008260809390
:10102000C1008091C10081608093C1008091C300A4
:1010300081608093C3008091C00082608093C00073
:101040008091C20081608093C20080917A008460A8
:1010500080937A0080917A00826080937A008091F8
:101060007A00816080937A0080917A008068809312
:101070007A00109248011092380110923901809143
:10108000D70081608093D70080EA8093D80089B52B
:10109000806189BD89B5826089BD09B400FEFDCF3C
:1010A00061E070E080E090E00E9459038091D800F8
:1010B0008F7C80618093D8008091E000807F809356
:1010C000E0008091E1008E7E8093E1008DE08093CE
:1010D000E200559A209A5D9828988FEF9FEF9093A1
:1010E00058018093570160ED77E080E090E00E9426
:1010F00059038FED90E00E94100489ED90E00E946A
:10110000AE026BE083EB91E00E940C01882309F4AE
:1011100065C086ED90E00E94100487EC90E00E948C
:10112000AE026AE087EA91E00E940C01882309F48C
:1011300058C084EC90E00E94100486EB90E00E947E
:10114000AE0269E08BE991E00E940C01882309F46A
:101150004BC083EB90E00E94100483E091E09093F9
:101160008900809388000FEF13E0C0E880E0E82E4C
:1011700080E0F82E1092B6011092B5011092AA01EB
:101180001092A90110929E0110929D011093B80136
:101190000093B701C093B901C093BA011093AC0199
:1011A0000093AB01C093AD01C093AE011093A001B9
:1011B00000939F01C093A101C093A20168E873E16D
:1011C00080E090E00E9459038BEE90E00E941004B2
:1011D000E114F10479F20E940000CCCF8FEC90E092
:1011E0009ACF8DEB90E0A7CF8CEA90E0B4CF8BE95B
:1011F00091E00E94220487EA91E00E94220483EB9E
:1012000091E00C942204EE0FFF1F0590F491E02D65
:10121000099410E0C1EED0E004C0FE010E94030971
:0C1220002196C23ED107C9F7F894FFCF19
:10122C00FFFFFFFF00E100000000000000C1808113
:10123C000000000000000098028B03D402C9021ABF
:08124C0003D802F6020D0A00AE
:00000001FF
